:020000040800F2
:100000000804002001010008090100080B01000894
:100010000D0100080F010008110100080000000098
:1000200000000000000000000000000013010008B4
:100030001501000800000000170100081901000860
:100040001B0100081B0100081B0100081B01000820
:100050001B0100081B0100081B0100081B01000810
:100060001B0100081B0100081B0100081B01000800
:100070001B0100081B0100081B0100081B010008F0
:100080001B0100081B0100081B0100081B010008E0
:100090001B0100081B0100081B0100081B010008D0
:1000A0001B0100081B0100081B0100081B010008C0
:1000B0001B0100081B0100081B0100081B010008B0
:1000C0001B0100081B0100081B0100081B010008A0
:1000D0001B0100081B0100081B0100081B01000890
:1000E0001B0100081B0100081B010008DFF80CD0F1
:1000F00000F018F800480047B10500080804002087
:100100000648804706480047FEE7FEE7FEE7FEE7B1
:10011000FEE7FEE7FEE7FEE7FEE7FEE73105000843
:10012000ED000008064C074D06E0E06840F00103D2
:1001300094E8070098471034AC42F6D3FFF7DAFF93
:10014000D0050008F00500082DE9F0410246002521
:100150000026002000230024002791F803C00CF0A3
:100160000F0591F803C00CF0100CBCF1000F03D088
:1001700091F802C04CEA050591F800C0BCF1000FEF
:1001800031D0146800202BE04FF0010C0CFA00F382
:10019000B1F800C00CEA03069E4220D183004FF064
:1001A0000F0C0CFA03F7BC4305FA03FC4CEA0404F9
:1001B00091F803C0BCF1280F06D14FF0010C0CFAE6
:1001C00000FCC2F814C00AE091F803C0BCF1480F6B
:1001D00005D14FF0010C0CFA00FCC2F810C0401C15
:1001E0000828D1D31460B1F800C0BCF1FF0F34DD92
:1001F000546800202EE000F1080C4FF0010808FAC6
:100200000CF3B1F800C00CEA03069E4221D1830032
:100210004FF00F0C0CFA03F7BC4305FA03FC4CEA51
:10022000040491F803C0BCF1280F05D100F1080CBB
:1002300008FA0CF8C2F8148091F803C0BCF1480F1A
:1002400007D100F1080C4FF0010808FA0CF8C2F8C9
:100250001080401C0828CED35460BDE8F081416175
:10026000704701617047000029B1064A9269024354
:10027000044B9A6104E0034A92698243014B9A61FC
:1002800070470000001002402DE9F04105460C4681
:1002900000260027B04610210E48FFF7E0FF284651
:1002A00000F0ACF8C6B210210A48FFF7DAFF1021BF
:1002B0000848FFF7D4FF204600F0A0F8C7B210218D
:1002C0000448FFF7CEFFB81040EA86184046BDE864
:1002D000F08100000008014021B1028842F0400294
:1002E000028004E002884FF6BF731A400280704714
:1002F00010B50022028802F441520B884C88234337
:100300008C882343CC8823430C8923434C89234383
:100310008C892343CC8923431A430280838B4FF279
:10032000FF74234083830B8A038210BD00B587B01E
:1003300001210803FFF798FF01213D20FFF794FFFB
:100340002020ADF8040003208DF8060018208DF859
:10035000070001A92748FFF7F7FE4020ADF8040089
:1003600003208DF8060028208DF8070001A92148F8
:10037000FFF7EAFE8020ADF8040003208DF80600A8
:1003800018208DF8070001A91A48FFF7DDFE10209C
:10039000ADF8040003208DF8060010208DF807004A
:1003A00001A91448FFF7D0FE0020ADF808004FF473
:1003B0008270ADF80A004FF40060ADF80C00022026
:1003C000ADF80E000120ADF810004002ADF81200AB
:1003D0000020ADF81400ADF816000720ADF81800A5
:1003E00002A90548FFF784FF01210348FFF774FFC6
:1003F00007B000BD00080140003001400146002266
:1004000006E0501C80B20246C82801DD002070477B
:100410000C48008900F002000028F2D009488181D0
:10042000002206E0501C80B20246C82801DD0020F0
:10043000EDE70448008900F001000028F2D00148EF
:100440008089E4E70030014010B500F001F810BDEC
:100450000CB50020019000903348006840F48030D3
:100460003149086000BF3048006800F40030009057
:100470000198401C0190009818B90198B0F5A06F40
:10048000F1D12948006800F4003010B1012000903B
:1004900001E0002000900098012843D12348006823
:1004A00040F01000214908600846006820F0030071
:1004B00008600846006840F0020008601A4840687A
:1004C000194948600846406848600846406840F45A
:1004D000806048600846406820F47C104860084608
:1004E000406840F4E81048600846006840F08070BA
:1004F000086000BF0C48006800F000700028F9D0C8
:100500000948406820F003000749486008464068F1
:1005100040F00200486000BF0348406800F00C0053
:100520000828F9D10CBD0000001002400020024054
:1005300010B51348006840F00100114908600846F2
:100540004068104908400E494860084600680E4956
:1005500008400B4908600846006820F480200860C5
:100560000846406820F4FE0048604FF41F00886091
:10057000FFF76AFF4FF000600449086010BD0000FB
:10058000001002400000FFF8FFFFF6FE08ED00E05B
:1005900002E008C8121F08C1002AFAD1704770474C
:1005A000002001E001C1121F002AFBD170470000AA
:1005B000FFF7BEFFFFF7BAFE07E04FF404414FF428
:1005C0000340FFF761FE01490880F6E700000020C4
:1005D000F00500080000002004000000900500085D
:1005E000F40500080400002004040000A005000831
:0405F0000000000007
:04000005080000ED02
:00000001FF
